:100000000C942A000C9449000C943F000C943F007F
:100010000C943F000C943F000C943F000C943F0064
:100020000C943F000C943F000C943F000C943F0054
:100030000C943F000C943F000C943F000C943F0044
:100040000C943F000C943F000C943F000C943F0034
:100050000C943F0011241FBECFE5D8E0DEBFCDBF1A
:1000600011E0A0E6B0E0EAE4F4E002C005900D92F1
:10007000AC33B107D9F70E94FB000C9423020C9417
:100080000000789485B7836085BF8BB780648BBF91
:1000900008951F920F920FB60F9211242F933F9342
:1000A0004F935F936F937F938F939F93AF93BF9380
:1000B000EF93FF93C598C698C79860E081E00E94CF
:1000C000830160E080E00E940A0280EA90E00E94E2
:1000D000E401FF91EF91BF91AF919F918F917F913B
:1000E0006F915F914F913F912F910F900FBE0F90A5
:1000F0001F90189580E487B985E886B9089597B16F
:100100008770982B97B9369A349BFECF349A84B176
:1001100095B1089510BC89E189B988E18AB986E86A
:1001200080BD08955D9BFECF8CB90895CF93DF937A
:10013000EC018991882319F00E949200FACFDF9197
:10014000CF9108959C0190E0492F50E0421753074A
:1001500044F4EFE4F3EC3197F1F700C000009F5F47
:10016000F3CF0895EF92FF920F931F93CF93DF93F6
:10017000CDB7DEB769970FB6F894DEBF0FBECDBF1F
:100180007C0161EB70E08E010F5F1F4FC8010E9480
:100190001C0282E28987F80101900020E9F731977B
:1001A000E01BF10BFF27D801AE0FBF1F8C93EC0FA4
:1001B000FD1F1282C8010E9496008DE00E949200ED
:1001C00085E090E00E94A200C7010E9496008AE1AB
:1001D0000E94920085E090E00E94A20069960FB60E
:1001E000F894DEBF0FBECDBFDF91CF911F910F916D
:1001F000FF90EF900895B89887B3806E87BBC09A40
:10020000C598C698C7980E9441000E947A000E9433
:100210008A0080E00E94AA0182E090E00E94A20091
:1002200089EC90E00E9496008DE00E94920082E0AE
:1002300090E00E94A20060E080E00E940A0280EA52
:1002400090E00E94E40180E00E947F0085369105E5
:10025000F8F060E081E00E94830160E081E00E94AC
:100260000A028CEC90E00E94E401C59AC69AC79AF3
:100270008AED90E00E94B20061E082E00E940A02F2
:100280008AEF90E00E94E40188EC90E00E94A200D6
:10029000B09BD9CF60E081E00E94830160E080E004
:1002A0000E940A0287E091E00E94E401C59AC69A82
:1002B00087E191E00E94B20061E082E00E940A02C0
:1002C0008AEF90E00E94E40184E690E00E94A200A0
:1002D000BACF84B38F7084BB959A94980000969A95
:1002E000000083B3807F000096980000969A00007B
:1002F00093B300009698000087FDF1CF959884B3E2
:10030000806F84BB0895382F32953F70982F9F706F
:10031000611102C0949801C0949A0000969A25B386
:10032000822F8F7040E1349F90011124282B25BB30
:10033000000096980000969A85B3282F2F7030E120
:10034000939FC0011124822B85BB0000969800006A
:100350000C946901CF93DF93C82F8BE49DE1019743
:10036000F1F700C0000084B3806F84BB8E9A8C9A32
:100370008D9A85B38F7085BB969895989498000058
:10038000969AAD9A0000969800000E94690160E07C
:100390008C2F8C600E94830160E088E20E948301C0
:1003A00060E080E40E948301C0E6D0E061E08991D2
:1003B0000E94830190E0C03AD907C1F760E080E86D
:1003C000DF91CF910C9483010F931F93CF93DF9311
:1003D000EC0188818823C9F0853281F48E010F5F9A
:1003E0001F4F8981805361E0883028F085E20E94A8
:1003F000830161E089810E94830104C061E00E9461
:1004000083018E01E8012196E4CFDF91CF911F9106
:100410000F910895843178F4623031F0633031F017
:10042000613029F4806403C08C5E01C08C5A60E0A6
:1004300080680C9483010895FB01DC0101900D920A
:0A0440000020E1F70895F894FFCFC3
:10044A000C12120C000000000C1204081E0000001E
:10045A000A15110A040000000305090B0B181800FD
:10046A001F0E0E04040404040101050515151500E8
:10047A000E11111F1F1F1F000000000000000000C6
:10048A0053797374656D2041637469766174656428
:10049A000041542B434D47533D202B3838303137D8
:1004AA00393134303630343000415400466972658F
:1004BA0020446574656374656400466972652069E1
:1004CA0073206465746563746564206F6E20796F48
:1004DA0075722073797374656D004D657373616706
:1004EA00652053656E74004D6F74696F6E204465A4
:1004FA007465637465640041206D6F74696F6E2062
:10050A006973206465746563746564206F6E20790D
:0C051A006F75722073797374656D0000BA
:00000001FF
